{
  "abi": [
    {
      "inputs": [],
      "name": "YouHaveZeroBalance",
      "type": "error"
    },
    {
      "inputs": [],
      "name": "ZeroAmountDeposited",
      "type": "error"
    },
    {
      "anonymous": false,
      "inputs": [
        {
          "indexed": false,
          "internalType": "uint256",
          "name": "balance",
          "type": "uint256"
        }
      ],
      "name": "VaultBalance",
      "type": "event"
    },
    {
      "anonymous": false,
      "inputs": [
        {
          "indexed": false,
          "internalType": "address",
          "name": "_address",
          "type": "address"
        },
        {
          "indexed": false,
          "internalType": "uint256",
          "name": "amount",
          "type": "uint256"
        }
      ],
      "name": "depositMade",
      "type": "event"
    },
    {
      "anonymous": false,
      "inputs": [
        {
          "indexed": false,
          "internalType": "address",
          "name": "_address",
          "type": "address"
        },
        {
          "indexed": false,
          "internalType": "uint256",
          "name": "amount",
          "type": "uint256"
        }
      ],
      "name": "withdrawalMade",
      "type": "event"
    },
    {
      "inputs": [
        {
          "internalType": "address",
          "name": "",
          "type": "address"
        }
      ],
      "name": "balances",
      "outputs": [
        {
          "internalType": "uint256",
          "name": "",
          "type": "uint256"
        }
      ],
      "stateMutability": "view",
      "type": "function"
    },
    {
      "inputs": [],
      "name": "deposit",
      "outputs": [],
      "stateMutability": "payable",
      "type": "function"
    },
    {
      "inputs": [],
      "name": "withdraw",
      "outputs": [],
      "stateMutability": "nonpayable",
      "type": "function"
    },
    {
      "stateMutability": "payable",
      "type": "receive"
    }
  ],
  "bytecode": {
    "object": "0x608060405234801561001057600080fd5b506102e6806100206000396000f3fe6080604052600436106100385760003560e01c806327e235e3146100695780633ccfd60b146100a8578063d0e30db0146100bf57600080fd5b3661006457336000908152602081905260408120805434929061005c908490610259565b925050819055005b600080fd5b34801561007557600080fd5b50610096610084366004610280565b60006020819052908152604090205481565b60405190815260200160405180910390f35b3480156100b457600080fd5b506100bd6100c7565b005b6100bd6101a7565b3360009081526020819052604081205490036100f6576040516332a923ab60e21b815260040160405180910390fd5b33600081815260208190526040808220805490839055905190929183156108fc02918491818181858888f19350505050158015610137573d6000803e3d6000fd5b5060408051338152602081018390527f1645bc385806bd472276f1f751ecfe0ee20d0ffd7d8ee85761562bdb01e54e6a910160405180910390a16040514781527f7ce2dfb87f3fc2a567209b06876a75aa201a75294628037b6728f75f371ac7b29060200160405180910390a150565b600034116101c8576040516347aedd1b60e11b815260040160405180910390fd5b33600090815260208190526040812080543492906101e7908490610259565b9091555050604080513381523460208201527f14558f60a55f03caac2b3dabdda0b51b20b0e22ce09a2c28cd1dc18e873578e8910160405180910390a16040514781527f7ce2dfb87f3fc2a567209b06876a75aa201a75294628037b6728f75f371ac7b29060200160405180910390a1565b8082018082111561027a57634e487b7160e01b600052601160045260246000fd5b92915050565b60006020828403121561029257600080fd5b81356001600160a01b03811681146102a957600080fd5b939250505056fea2646970667358221220f710475851c435f4526dbac57870c0df1d562e57abef2fc68104464e0f1d1a4a64736f6c63430008100033",
    "linkReferences": {}
  },
  "methodIdentifiers": {
    "balances(address)": "27e235e3",
    "deposit()": "d0e30db0",
    "withdraw()": "3ccfd60b"
  },
  "id": 8
}